{
  "_format": "hh-sol-artifact-1",
  "contractName": "NFTMarketplace",
  "sourceName": "contracts/NFTMarketplace.sol",
  "abi": [
    {
      "inputs": [],
      "stateMutability": "nonpayable",
      "type": "constructor"
    },
    {
      "anonymous": false,
      "inputs": [
        {
          "indexed": true,
          "internalType": "address",
          "name": "owner",
          "type": "address"
        },
        {
          "indexed": true,
          "internalType": "address",
          "name": "approved",
          "type": "address"
        },
        {
          "indexed": true,
          "internalType": "uint256",
          "name": "tokenId",
          "type": "uint256"
        }
      ],
      "name": "Approval",
      "type": "event"
    },
    {
      "anonymous": false,
      "inputs": [
        {
          "indexed": true,
          "internalType": "address",
          "name": "owner",
          "type": "address"
        },
        {
          "indexed": true,
          "internalType": "address",
          "name": "operator",
          "type": "address"
        },
        {
          "indexed": false,
          "internalType": "bool",
          "name": "approved",
          "type": "bool"
        }
      ],
      "name": "ApprovalForAll",
      "type": "event"
    },
    {
      "anonymous": false,
      "inputs": [
        {
          "indexed": false,
          "internalType": "uint256",
          "name": "_fromTokenId",
          "type": "uint256"
        },
        {
          "indexed": false,
          "internalType": "uint256",
          "name": "_toTokenId",
          "type": "uint256"
        }
      ],
      "name": "BatchMetadataUpdate",
      "type": "event"
    },
    {
      "anonymous": false,
      "inputs": [
        {
          "indexed": true,
          "internalType": "uint256",
          "name": "tokenId",
          "type": "uint256"
        },
        {
          "indexed": true,
          "internalType": "address",
          "name": "seller",
          "type": "address"
        },
        {
          "indexed": false,
          "internalType": "address",
          "name": "owner",
          "type": "address"
        },
        {
          "indexed": false,
          "internalType": "uint256",
          "name": "price",
          "type": "uint256"
        },
        {
          "indexed": false,
          "internalType": "bool",
          "name": "sold",
          "type": "bool"
        }
      ],
      "name": "MarketItemCreated",
      "type": "event"
    },
    {
      "anonymous": false,
      "inputs": [
        {
          "indexed": false,
          "internalType": "uint256",
          "name": "_tokenId",
          "type": "uint256"
        }
      ],
      "name": "MetadataUpdate",
      "type": "event"
    },
    {
      "anonymous": false,
      "inputs": [
        {
          "indexed": true,
          "internalType": "address",
          "name": "from",
          "type": "address"
        },
        {
          "indexed": true,
          "internalType": "address",
          "name": "to",
          "type": "address"
        },
        {
          "indexed": true,
          "internalType": "uint256",
          "name": "tokenId",
          "type": "uint256"
        }
      ],
      "name": "Transfer",
      "type": "event"
    },
    {
      "inputs": [
        {
          "internalType": "address",
          "name": "to",
          "type": "address"
        },
        {
          "internalType": "uint256",
          "name": "tokenId",
          "type": "uint256"
        }
      ],
      "name": "approve",
      "outputs": [],
      "stateMutability": "nonpayable",
      "type": "function"
    },
    {
      "inputs": [
        {
          "internalType": "address",
          "name": "owner",
          "type": "address"
        }
      ],
      "name": "balanceOf",
      "outputs": [
        {
          "internalType": "uint256",
          "name": "",
          "type": "uint256"
        }
      ],
      "stateMutability": "view",
      "type": "function"
    },
    {
      "inputs": [
        {
          "internalType": "uint256",
          "name": "tokenId",
          "type": "uint256"
        }
      ],
      "name": "createMarketSale",
      "outputs": [],
      "stateMutability": "payable",
      "type": "function"
    },
    {
      "inputs": [
        {
          "internalType": "string",
          "name": "_tokenURI",
          "type": "string"
        },
        {
          "internalType": "uint256",
          "name": "price",
          "type": "uint256"
        }
      ],
      "name": "createToken",
      "outputs": [
        {
          "internalType": "uint256",
          "name": "",
          "type": "uint256"
        }
      ],
      "stateMutability": "payable",
      "type": "function"
    },
    {
      "inputs": [],
      "name": "fetchItemsListed",
      "outputs": [
        {
          "components": [
            {
              "internalType": "uint256",
              "name": "tokenId",
              "type": "uint256"
            },
            {
              "internalType": "address payable",
              "name": "seller",
              "type": "address"
            },
            {
              "internalType": "address payable",
              "name": "owner",
              "type": "address"
            },
            {
              "internalType": "uint256",
              "name": "price",
              "type": "uint256"
            },
            {
              "internalType": "bool",
              "name": "sold",
              "type": "bool"
            }
          ],
          "internalType": "struct NFTMarketplace.MarketItem[]",
          "name": "",
          "type": "tuple[]"
        }
      ],
      "stateMutability": "view",
      "type": "function"
    },
    {
      "inputs": [],
      "name": "fetchMyNFt",
      "outputs": [
        {
          "components": [
            {
              "internalType": "uint256",
              "name": "tokenId",
              "type": "uint256"
            },
            {
              "internalType": "address payable",
              "name": "seller",
              "type": "address"
            },
            {
              "internalType": "address payable",
              "name": "owner",
              "type": "address"
            },
            {
              "internalType": "uint256",
              "name": "price",
              "type": "uint256"
            },
            {
              "internalType": "bool",
              "name": "sold",
              "type": "bool"
            }
          ],
          "internalType": "struct NFTMarketplace.MarketItem[]",
          "name": "",
          "type": "tuple[]"
        }
      ],
      "stateMutability": "view",
      "type": "function"
    },
    {
      "inputs": [
        {
          "internalType": "uint256",
          "name": "tokenId",
          "type": "uint256"
        }
      ],
      "name": "getApproved",
      "outputs": [
        {
          "internalType": "address",
          "name": "",
          "type": "address"
        }
      ],
      "stateMutability": "view",
      "type": "function"
    },
    {
      "inputs": [],
      "name": "getListingPrice",
      "outputs": [
        {
          "internalType": "uint256",
          "name": "",
          "type": "uint256"
        }
      ],
      "stateMutability": "view",
      "type": "function"
    },
    {
      "inputs": [],
      "name": "getUnsoldNFT",
      "outputs": [
        {
          "components": [
            {
              "internalType": "uint256",
              "name": "tokenId",
              "type": "uint256"
            },
            {
              "internalType": "address payable",
              "name": "seller",
              "type": "address"
            },
            {
              "internalType": "address payable",
              "name": "owner",
              "type": "address"
            },
            {
              "internalType": "uint256",
              "name": "price",
              "type": "uint256"
            },
            {
              "internalType": "bool",
              "name": "sold",
              "type": "bool"
            }
          ],
          "internalType": "struct NFTMarketplace.MarketItem[]",
          "name": "",
          "type": "tuple[]"
        }
      ],
      "stateMutability": "view",
      "type": "function"
    },
    {
      "inputs": [
        {
          "internalType": "address",
          "name": "owner",
          "type": "address"
        },
        {
          "internalType": "address",
          "name": "operator",
          "type": "address"
        }
      ],
      "name": "isApprovedForAll",
      "outputs": [
        {
          "internalType": "bool",
          "name": "",
          "type": "bool"
        }
      ],
      "stateMutability": "view",
      "type": "function"
    },
    {
      "inputs": [],
      "name": "name",
      "outputs": [
        {
          "internalType": "string",
          "name": "",
          "type": "string"
        }
      ],
      "stateMutability": "view",
      "type": "function"
    },
    {
      "inputs": [
        {
          "internalType": "uint256",
          "name": "tokenId",
          "type": "uint256"
        }
      ],
      "name": "ownerOf",
      "outputs": [
        {
          "internalType": "address",
          "name": "",
          "type": "address"
        }
      ],
      "stateMutability": "view",
      "type": "function"
    },
    {
      "inputs": [
        {
          "internalType": "uint256",
          "name": "tokenId",
          "type": "uint256"
        },
        {
          "internalType": "uint256",
          "name": "price",
          "type": "uint256"
        }
      ],
      "name": "resellToken",
      "outputs": [],
      "stateMutability": "payable",
      "type": "function"
    },
    {
      "inputs": [
        {
          "internalType": "address",
          "name": "from",
          "type": "address"
        },
        {
          "internalType": "address",
          "name": "to",
          "type": "address"
        },
        {
          "internalType": "uint256",
          "name": "tokenId",
          "type": "uint256"
        }
      ],
      "name": "safeTransferFrom",
      "outputs": [],
      "stateMutability": "nonpayable",
      "type": "function"
    },
    {
      "inputs": [
        {
          "internalType": "address",
          "name": "from",
          "type": "address"
        },
        {
          "internalType": "address",
          "name": "to",
          "type": "address"
        },
        {
          "internalType": "uint256",
          "name": "tokenId",
          "type": "uint256"
        },
        {
          "internalType": "bytes",
          "name": "data",
          "type": "bytes"
        }
      ],
      "name": "safeTransferFrom",
      "outputs": [],
      "stateMutability": "nonpayable",
      "type": "function"
    },
    {
      "inputs": [
        {
          "internalType": "address",
          "name": "operator",
          "type": "address"
        },
        {
          "internalType": "bool",
          "name": "approved",
          "type": "bool"
        }
      ],
      "name": "setApprovalForAll",
      "outputs": [],
      "stateMutability": "nonpayable",
      "type": "function"
    },
    {
      "inputs": [
        {
          "internalType": "bytes4",
          "name": "interfaceId",
          "type": "bytes4"
        }
      ],
      "name": "supportsInterface",
      "outputs": [
        {
          "internalType": "bool",
          "name": "",
          "type": "bool"
        }
      ],
      "stateMutability": "view",
      "type": "function"
    },
    {
      "inputs": [],
      "name": "symbol",
      "outputs": [
        {
          "internalType": "string",
          "name": "",
          "type": "string"
        }
      ],
      "stateMutability": "view",
      "type": "function"
    },
    {
      "inputs": [
        {
          "internalType": "uint256",
          "name": "tokenId",
          "type": "uint256"
        }
      ],
      "name": "tokenURI",
      "outputs": [
        {
          "internalType": "string",
          "name": "",
          "type": "string"
        }
      ],
      "stateMutability": "view",
      "type": "function"
    },
    {
      "inputs": [
        {
          "internalType": "address",
          "name": "from",
          "type": "address"
        },
        {
          "internalType": "address",
          "name": "to",
          "type": "address"
        },
        {
          "internalType": "uint256",
          "name": "tokenId",
          "type": "uint256"
        }
      ],
      "name": "transferFrom",
      "outputs": [],
      "stateMutability": "nonpayable",
      "type": "function"
    },
    {
      "inputs": [
        {
          "internalType": "uint256",
          "name": "_listingPrice",
          "type": "uint256"
        }
      ],
      "name": "updateListingPrice",
      "outputs": [],
      "stateMutability": "payable",
      "type": "function"
    }
  ],
  "bytecode": "0x608060405266354a6ba7a180006009553480156200001c57600080fd5b506040518060400160405280600e81526020017f4e46544d61726b6574706c6163650000000000000000000000000000000000008152506040518060400160405280600481526020017f4e46544d000000000000000000000000000000000000000000000000000000008152508160009080519060200190620000a192919062000104565b508060019080519060200190620000ba92919062000104565b50505033600a60006101000a81548173ffffffffffffffffffffffffffffffffffffffff021916908373ffffffffffffffffffffffffffffffffffffffff16021790555062000219565b8280546200011290620001b4565b90600052602060002090601f01602090048101928262000136576000855562000182565b82601f106200015157805160ff191683800117855562000182565b8280016001018555821562000182579182015b828111156200018157825182559160200191906001019062000164565b5b50905062000191919062000195565b5090565b5b80821115620001b057600081600090555060010162000196565b5090565b60006002820490506001821680620001cd57607f821691505b60208210811415620001e457620001e3620001ea565b5b50919050565b7f4e487b7100000000000000000000000000000000000000000000000000000000600052602260045260246000fd5b6141f580620002296000396000f3fe60806040526004361061012a5760003560e01c806370a08231116100ab578063ae677aa31161006f578063ae677aa3146103f9578063b88d4fde14610415578063be9af5361461043e578063c87b56dd1461045a578063e219fc7514610497578063e985e9c5146104b35761012a565b806370a082311461030d57806372b3b6201461034a57806395d89b411461037a578063a22cb465146103a5578063a7fd0b9e146103ce5761012a565b806312e85585116100f257806312e855851461022857806323b872dd1461025357806342842e0e1461027c57806345f8fa80146102a55780636352211e146102d05761012a565b806301ffc9a71461012f57806306fdde031461016c578063081812fc14610197578063095ea7b3146101d457806311b80169146101fd575b600080fd5b34801561013b57600080fd5b5061015660048036038101906101519190612f06565b6104f0565b60405161016391906135a4565b60405180910390f35b34801561017857600080fd5b50610181610551565b60405161018e91906135bf565b60405180910390f35b3480156101a357600080fd5b506101be60048036038101906101b99190612fbc565b6105e3565b6040516101cb91906134e4565b60405180910390f35b3480156101e057600080fd5b506101fb60048036038101906101f69190612ec6565b610629565b005b34801561020957600080fd5b50610212610741565b60405161021f9190613582565b60405180910390f35b34801561023457600080fd5b5061023d6109a4565b60405161024a9190613861565b60405180910390f35b34801561025f57600080fd5b5061027a60048036038101906102759190612db0565b6109ae565b005b34801561028857600080fd5b506102a3600480360381019061029e9190612db0565b610a0e565b005b3480156102b157600080fd5b506102ba610a2e565b6040516102c79190613582565b60405180910390f35b3480156102dc57600080fd5b506102f760048036038101906102f29190612fbc565b610d1c565b60405161030491906134e4565b60405180910390f35b34801561031957600080fd5b50610334600480360381019061032f9190612d43565b610da3565b6040516103419190613861565b60405180910390f35b610364600480360381019061035f9190612f60565b610e5b565b6040516103719190613861565b60405180910390f35b34801561038657600080fd5b5061038f610e9d565b60405161039c91906135bf565b60405180910390f35b3480156103b157600080fd5b506103cc60048036038101906103c79190612e86565b610f2f565b005b3480156103da57600080fd5b506103e3610f45565b6040516103f09190613582565b60405180910390f35b610413600480360381019061040e9190612fbc565b611233565b005b34801561042157600080fd5b5061043c60048036038101906104379190612e03565b611297565b005b61045860048036038101906104539190612fbc565b6112f9565b005b34801561046657600080fd5b50610481600480360381019061047c9190612fbc565b611545565b60405161048e91906135bf565b60405180910390f35b6104b160048036038101906104ac9190612fe9565b611658565b005b3480156104bf57600080fd5b506104da60048036038101906104d59190612d70565b61181e565b6040516104e791906135a4565b60405180910390f35b6000634906490660e01b7bffffffffffffffffffffffffffffffffffffffffffffffffffffffff1916827bffffffffffffffffffffffffffffffffffffffffffffffffffffffff1916148061054a5750610549826118b2565b5b9050919050565b60606000805461056090613ad1565b80601f016020809104026020016040519081016040528092919081815260200182805461058c90613ad1565b80156105d95780601f106105ae576101008083540402835291602001916105d9565b820191906000526020600020905b8154815290600101906020018083116105bc57829003601f168201915b5050505050905090565b60006105ee82611994565b6004600083815260200190815260200160002060009054906101000a900473ffffffffffffffffffffffffffffffffffffffff169050919050565b600061063482610d1c565b90508073ffffffffffffffffffffffffffffffffffffffff168373ffffffffffffffffffffffffffffffffffffffff1614156106a5576040517f08c379a000000000000000000000000000000000000000000000000000000000815260040161069c90613781565b60405180910390fd5b8073ffffffffffffffffffffffffffffffffffffffff166106c46119df565b73ffffffffffffffffffffffffffffffffffffffff1614806106f357506106f2816106ed6119df565b61181e565b5b610732576040517f08c379a0000000000000000000000000000000000000000000000000000000008152600401610729906137c1565b60405180910390fd5b61073c83836119e7565b505050565b6060600061074f6008611aa0565b6107596007611aa0565b61076391906139d5565b90506000808267ffffffffffffffff81111561078257610781613c39565b5b6040519080825280602002602001820160405280156107bb57816020015b6107a8612afa565b8152602001906001900390816107a05790505b50905060005b6107cb6007611aa0565b81101561099a573073ffffffffffffffffffffffffffffffffffffffff16600b60006001846107fa919061397f565b815260200190815260200160002060020160009054906101000a900473ffffffffffffffffffffffffffffffffffffffff1673ffffffffffffffffffffffffffffffffffffffff161415610987576000600182610857919061397f565b90506000600b60008381526020019081526020016000209050806040518060a0016040529081600082015481526020016001820160009054906101000a900473ffffffffffffffffffffffffffffffffffffffff1673ffffffffffffffffffffffffffffffffffffffff1673ffffffffffffffffffffffffffffffffffffffff1681526020016002820160009054906101000a900473ffffffffffffffffffffffffffffffffffffffff1673ffffffffffffffffffffffffffffffffffffffff1673ffffffffffffffffffffffffffffffffffffffff168152602001600382015481526020016004820160009054906101000a900460ff16151515158152505084868151811061096a57610969613c0a565b5b6020026020010181905250600185610982919061397f565b945050505b808061099290613b34565b9150506107c1565b5080935050505090565b6000600954905090565b6109bf6109b96119df565b82611aae565b6109fe576040517f08c379a00000000000000000000000000000000000000000000000000000000081526004016109f5906135e1565b60405180910390fd5b610a09838383611b43565b505050565b610a2983838360405180602001604052806000815250611297565b505050565b60606000610a3c6007611aa0565b905060008060005b83811015610ae5573373ffffffffffffffffffffffffffffffffffffffff16600b6000600184610a74919061397f565b815260200190815260200160002060010160009054906101000a900473ffffffffffffffffffffffffffffffffffffffff1673ffffffffffffffffffffffffffffffffffffffff161415610ad257600183610acf919061397f565b92505b8080610add90613b34565b915050610a44565b5060008267ffffffffffffffff811115610b0257610b01613c39565b5b604051908082528060200260200182016040528015610b3b57816020015b610b28612afa565b815260200190600190039081610b205790505b50905060005b84811015610d11573373ffffffffffffffffffffffffffffffffffffffff16600b6000600184610b71919061397f565b815260200190815260200160002060010160009054906101000a900473ffffffffffffffffffffffffffffffffffffffff1673ffffffffffffffffffffffffffffffffffffffff161415610cfe576000600182610bce919061397f565b90506000600b60008381526020019081526020016000209050806040518060a0016040529081600082015481526020016001820160009054906101000a900473ffffffffffffffffffffffffffffffffffffffff1673ffffffffffffffffffffffffffffffffffffffff1673ffffffffffffffffffffffffffffffffffffffff1681526020016002820160009054906101000a900473ffffffffffffffffffffffffffffffffffffffff1673ffffffffffffffffffffffffffffffffffffffff1673ffffffffffffffffffffffffffffffffffffffff168152602001600382015481526020016004820160009054906101000a900460ff161515151581525050848681518110610ce157610ce0613c0a565b5b6020026020010181905250600185610cf9919061397f565b945050505b8080610d0990613b34565b915050610b41565b508094505050505090565b600080610d2883611e3d565b9050600073ffffffffffffffffffffffffffffffffffffffff168173ffffffffffffffffffffffffffffffffffffffff161415610d9a576040517f08c379a0000000000000000000000000000000000000000000000000000000008152600401610d9190613761565b60405180910390fd5b80915050919050565b60008073ffffffffffffffffffffffffffffffffffffffff168273ffffffffffffffffffffffffffffffffffffffff161415610e14576040517f08c379a0000000000000000000000000000000000000000000000000000000008152600401610e0b906136e1565b60405180910390fd5b600360008373ffffffffffffffffffffffffffffffffffffffff1673ffffffffffffffffffffffffffffffffffffffff168152602001908152602001600020549050919050565b6000610e676007611e7a565b6000610e736007611aa0565b9050610e7f3382611e90565b610e8981856120ae565b610e938184612159565b8091505092915050565b606060018054610eac90613ad1565b80601f0160208091040260200160405190810160405280929190818152602001828054610ed890613ad1565b8015610f255780601f10610efa57610100808354040283529160200191610f25565b820191906000526020600020905b815481529060010190602001808311610f0857829003601f168201915b5050505050905090565b610f41610f3a6119df565b83836123ba565b5050565b60606000610f536007611aa0565b905060008060005b83811015610ffc573373ffffffffffffffffffffffffffffffffffffffff16600b6000600184610f8b919061397f565b815260200190815260200160002060020160009054906101000a900473ffffffffffffffffffffffffffffffffffffffff1673ffffffffffffffffffffffffffffffffffffffff161415610fe957600183610fe6919061397f565b92505b8080610ff490613b34565b915050610f5b565b5060008267ffffffffffffffff81111561101957611018613c39565b5b60405190808252806020026020018201604052801561105257816020015b61103f612afa565b8152602001906001900390816110375790505b50905060005b84811015611228573373ffffffffffffffffffffffffffffffffffffffff16600b6000600184611088919061397f565b815260200190815260200160002060020160009054906101000a900473ffffffffffffffffffffffffffffffffffffffff1673ffffffffffffffffffffffffffffffffffffffff1614156112155760006001826110e5919061397f565b90506000600b60008381526020019081526020016000209050806040518060a0016040529081600082015481526020016001820160009054906101000a900473ffffffffffffffffffffffffffffffffffffffff1673ffffffffffffffffffffffffffffffffffffffff1673ffffffffffffffffffffffffffffffffffffffff1681526020016002820160009054906101000a900473ffffffffffffffffffffffffffffffffffffffff1673ffffffffffffffffffffffffffffffffffffffff1673ffffffffffffffffffffffffffffffffffffffff168152602001600382015481526020016004820160009054906101000a900460ff1615151515815250508486815181106111f8576111f7613c0a565b5b6020026020010181905250600185611210919061397f565b945050505b808061122090613b34565b915050611058565b508094505050505090565b600a60009054906101000a900473ffffffffffffffffffffffffffffffffffffffff1673ffffffffffffffffffffffffffffffffffffffff163373ffffffffffffffffffffffffffffffffffffffff161461128d57600080fd5b8060098190555050565b6112a86112a26119df565b83611aae565b6112e7576040517f08c379a00000000000000000000000000000000000000000000000000000000081526004016112de906135e1565b60405180910390fd5b6112f384848484612527565b50505050565b6000600b6000838152602001908152602001600020600301549050803414611356576040517f08c379a000000000000000000000000000000000000000000000000000000000815260040161134d90613721565b60405180910390fd5b60001515600b600084815260200190815260200160002060040160009054906101000a900460ff161515146113c0576040517f08c379a00000000000000000000000000000000000000000000000000000000081526004016113b790613821565b60405180910390fd5b33600b600084815260200190815260200160002060020160006101000a81548173ffffffffffffffffffffffffffffffffffffffff021916908373ffffffffffffffffffffffffffffffffffffffff1602179055506001600b600084815260200190815260200160002060040160006101000a81548160ff02191690831515021790555061144e6008611e7a565b611459303384611b43565b600a60009054906101000a900473ffffffffffffffffffffffffffffffffffffffff1673ffffffffffffffffffffffffffffffffffffffff166108fc6009549081150290604051600060405180830381858888f193505050501580156114c3573d6000803e3d6000fd5b50600b600083815260200190815260200160002060010160009054906101000a900473ffffffffffffffffffffffffffffffffffffffff1673ffffffffffffffffffffffffffffffffffffffff166108fc349081150290604051600060405180830381858888f19350505050158015611540573d6000803e3d6000fd5b505050565b606061155082611994565b600060066000848152602001908152602001600020805461157090613ad1565b80601f016020809104026020016040519081016040528092919081815260200182805461159c90613ad1565b80156115e95780601f106115be576101008083540402835291602001916115e9565b820191906000526020600020905b8154815290600101906020018083116115cc57829003601f168201915b5050505050905060006115fa612583565b9050600081511415611610578192505050611653565b60008251111561164557808260405160200161162d9291906134c0565b60405160208183030381529060405292505050611653565b61164e8461259a565b925050505b919050565b3373ffffffffffffffffffffffffffffffffffffffff16600b600084815260200190815260200160002060020160009054906101000a900473ffffffffffffffffffffffffffffffffffffffff1673ffffffffffffffffffffffffffffffffffffffff16146116fc576040517f08c379a00000000000000000000000000000000000000000000000000000000081526004016116f390613641565b60405180910390fd5b6009543414611740576040517f08c379a0000000000000000000000000000000000000000000000000000000008152600401611737906137a1565b60405180910390fd5b80600b60008481526020019081526020016000206003018190555033600b600084815260200190815260200160002060010160006101000a81548173ffffffffffffffffffffffffffffffffffffffff021916908373ffffffffffffffffffffffffffffffffffffffff16021790555030600b600084815260200190815260200160002060020160006101000a81548173ffffffffffffffffffffffffffffffffffffffff021916908373ffffffffffffffffffffffffffffffffffffffff16021790555061180f6008612602565b61181a333084611b43565b5050565b6000600560008473ffffffffffffffffffffffffffffffffffffffff1673ffffffffffffffffffffffffffffffffffffffff16815260200190815260200160002060008373ffffffffffffffffffffffffffffffffffffffff1673ffffffffffffffffffffffffffffffffffffffff16815260200190815260200160002060009054906101000a900460ff16905092915050565b60007f80ac58cd000000000000000000000000000000000000000000000000000000007bffffffffffffffffffffffffffffffffffffffffffffffffffffffff1916827bffffffffffffffffffffffffffffffffffffffffffffffffffffffff1916148061197d57507f5b5e139f000000000000000000000000000000000000000000000000000000007bffffffffffffffffffffffffffffffffffffffffffffffffffffffff1916827bffffffffffffffffffffffffffffffffffffffffffffffffffffffff1916145b8061198d575061198c8261265e565b5b9050919050565b61199d816126c8565b6119dc576040517f08c379a00000000000000000000000000000000000000000000000000000000081526004016119d390613761565b60405180910390fd5b50565b600033905090565b816004600083815260200190815260200160002060006101000a81548173ffffffffffffffffffffffffffffffffffffffff021916908373ffffffffffffffffffffffffffffffffffffffff160217905550808273ffffffffffffffffffffffffffffffffffffffff16611a5a83610d1c565b73ffffffffffffffffffffffffffffffffffffffff167f8c5be1e5ebec7d5bd14f71427d1e84f3dd0314c0f7b2291e5b200ac8c7c3b92560405160405180910390a45050565b600081600001549050919050565b600080611aba83610d1c565b90508073ffffffffffffffffffffffffffffffffffffffff168473ffffffffffffffffffffffffffffffffffffffff161480611afc5750611afb818561181e565b5b80611b3a57508373ffffffffffffffffffffffffffffffffffffffff16611b22846105e3565b73ffffffffffffffffffffffffffffffffffffffff16145b91505092915050565b8273ffffffffffffffffffffffffffffffffffffffff16611b6382610d1c565b73ffffffffffffffffffffffffffffffffffffffff1614611bb9576040517f08c379a0000000000000000000000000000000000000000000000000000000008152600401611bb090613661565b60405180910390fd5b600073ffffffffffffffffffffffffffffffffffffffff168273ffffffffffffffffffffffffffffffffffffffff161415611c29576040517f08c379a0000000000000000000000000000000000000000000000000000000008152600401611c20906136a1565b60405180910390fd5b611c368383836001612709565b8273ffffffffffffffffffffffffffffffffffffffff16611c5682610d1c565b73ffffffffffffffffffffffffffffffffffffffff1614611cac576040517f08c379a0000000000000000000000000000000000000000000000000000000008152600401611ca390613661565b60405180910390fd5b6004600082815260200190815260200160002060006101000a81549073ffffffffffffffffffffffffffffffffffffffff02191690556001600360008573ffffffffffffffffffffffffffffffffffffffff1673ffffffffffffffffffffffffffffffffffffffff168152602001908152602001600020600082825403925050819055506001600360008473ffffffffffffffffffffffffffffffffffffffff1673ffffffffffffffffffffffffffffffffffffffff16815260200190815260200160002060008282540192505081905550816002600083815260200190815260200160002060006101000a81548173ffffffffffffffffffffffffffffffffffffffff021916908373ffffffffffffffffffffffffffffffffffffffff160217905550808273ffffffffffffffffffffffffffffffffffffffff168473ffffffffffffffffffffffffffffffffffffffff167fddf252ad1be2c89b69c2b068fc378daa952ba7f163c4a11628f55a4df523b3ef60405160405180910390a4611e38838383600161270f565b505050565b60006002600083815260200190815260200160002060009054906101000a900473ffffffffffffffffffffffffffffffffffffffff169050919050565b6001816000016000828254019250508190555050565b600073ffffffffffffffffffffffffffffffffffffffff168273ffffffffffffffffffffffffffffffffffffffff161415611f00576040517f08c379a0000000000000000000000000000000000000000000000000000000008152600401611ef790613741565b60405180910390fd5b611f09816126c8565b15611f49576040517f08c379a0000000000000000000000000000000000000000000000000000000008152600401611f4090613681565b60405180910390fd5b611f57600083836001612709565b611f60816126c8565b15611fa0576040517f08c379a0000000000000000000000000000000000000000000000000000000008152600401611f9790613681565b60405180910390fd5b6001600360008473ffffffffffffffffffffffffffffffffffffffff1673ffffffffffffffffffffffffffffffffffffffff16815260200190815260200160002060008282540192505081905550816002600083815260200190815260200160002060006101000a81548173ffffffffffffffffffffffffffffffffffffffff021916908373ffffffffffffffffffffffffffffffffffffffff160217905550808273ffffffffffffffffffffffffffffffffffffffff16600073ffffffffffffffffffffffffffffffffffffffff167fddf252ad1be2c89b69c2b068fc378daa952ba7f163c4a11628f55a4df523b3ef60405160405180910390a46120aa60008383600161270f565b5050565b6120b7826126c8565b6120f6576040517f08c379a00000000000000000000000000000000000000000000000000000000081526004016120ed90613701565b60405180910390fd5b8060066000848152602001908152602001600020908051906020019061211d929190612b57565b507ff8e1a15aba9398e019f0b49df1a4fde98ee17ae345cb5f6b5e2c27f5033e8ce78260405161214d9190613861565b60405180910390a15050565b6000811161219c576040517f08c379a0000000000000000000000000000000000000000000000000000000008152600401612193906137e1565b60405180910390fd5b6009548110156121e1576040517f08c379a00000000000000000000000000000000000000000000000000000000081526004016121d890613801565b60405180910390fd5b6121ea826126c8565b612229576040517f08c379a000000000000000000000000000000000000000000000000000000000815260040161222090613841565b60405180910390fd5b6040518060a001604052808381526020013373ffffffffffffffffffffffffffffffffffffffff1681526020013073ffffffffffffffffffffffffffffffffffffffff16815260200182815260200160001515815250600b60008481526020019081526020016000206000820151816000015560208201518160010160006101000a81548173ffffffffffffffffffffffffffffffffffffffff021916908373ffffffffffffffffffffffffffffffffffffffff16021790555060408201518160020160006101000a81548173ffffffffffffffffffffffffffffffffffffffff021916908373ffffffffffffffffffffffffffffffffffffffff1602179055506060820151816003015560808201518160040160006101000a81548160ff021916908315150217905550905050612362333084611b43565b3373ffffffffffffffffffffffffffffffffffffffff16827fb640004f1d14576d0c209e240cad0410e0d8c0c33a09375861fbadae2588a98d308460006040516123ae9392919061354b565b60405180910390a35050565b8173ffffffffffffffffffffffffffffffffffffffff168373ffffffffffffffffffffffffffffffffffffffff161415612429576040517f08c379a0000000000000000000000000000000000000000000000000000000008152600401612420906136c1565b60405180910390fd5b80600560008573ffffffffffffffffffffffffffffffffffffffff1673ffffffffffffffffffffffffffffffffffffffff16815260200190815260200160002060008473ffffffffffffffffffffffffffffffffffffffff1673ffffffffffffffffffffffffffffffffffffffff16815260200190815260200160002060006101000a81548160ff0219169083151502179055508173ffffffffffffffffffffffffffffffffffffffff168373ffffffffffffffffffffffffffffffffffffffff167f17307eab39ab6107e8899845ad3d59bd9653f200f220920489ca2b5937696c318360405161251a91906135a4565b60405180910390a3505050565b612532848484611b43565b61253e84848484612715565b61257d576040517f08c379a000000000000000000000000000000000000000000000000000000000815260040161257490613621565b60405180910390fd5b50505050565b606060405180602001604052806000815250905090565b60606125a582611994565b60006125af612583565b905060008151116125cf57604051806020016040528060008152506125fa565b806125d9846128ac565b6040516020016125ea9291906134c0565b6040516020818303038152906040525b915050919050565b6000816000015490506000811161264e576040517f08c379a000000000000000000000000000000000000000000000000000000000815260040161264590613601565b60405180910390fd5b6001810382600001819055505050565b60007f01ffc9a7000000000000000000000000000000000000000000000000000000007bffffffffffffffffffffffffffffffffffffffffffffffffffffffff1916827bffffffffffffffffffffffffffffffffffffffffffffffffffffffff1916149050919050565b60008073ffffffffffffffffffffffffffffffffffffffff166126ea83611e3d565b73ffffffffffffffffffffffffffffffffffffffff1614159050919050565b50505050565b50505050565b60006127368473ffffffffffffffffffffffffffffffffffffffff16612984565b1561289f578373ffffffffffffffffffffffffffffffffffffffff1663150b7a0261275f6119df565b8786866040518563ffffffff1660e01b815260040161278194939291906134ff565b602060405180830381600087803b15801561279b57600080fd5b505af19250505080156127cc57506040513d601f19601f820116820180604052508101906127c99190612f33565b60015b61284f573d80600081146127fc576040519150601f19603f3d011682016040523d82523d6000602084013e612801565b606091505b50600081511415612847576040517f08c379a000000000000000000000000000000000000000000000000000000000815260040161283e90613621565b60405180910390fd5b805181602001fd5b63150b7a0260e01b7bffffffffffffffffffffffffffffffffffffffffffffffffffffffff1916817bffffffffffffffffffffffffffffffffffffffffffffffffffffffff1916149150506128a4565b600190505b949350505050565b6060600060016128bb846129a7565b01905060008167ffffffffffffffff8111156128da576128d9613c39565b5b6040519080825280601f01601f19166020018201604052801561290c5781602001600182028036833780820191505090505b509050600082602001820190505b600115612979578080600190039150507f3031323334353637383961626364656600000000000000000000000000000000600a86061a8153600a858161296357612962613bac565b5b049450600085141561297457612979565b61291a565b819350505050919050565b6000808273ffffffffffffffffffffffffffffffffffffffff163b119050919050565b600080600090507a184f03e93ff9f4daa797ed6e38ed64bf6a1f0100000000000000008310612a05577a184f03e93ff9f4daa797ed6e38ed64bf6a1f01000000000000000083816129fb576129fa613bac565b5b0492506040810190505b6d04ee2d6d415b85acef81000000008310612a42576d04ee2d6d415b85acef81000000008381612a3857612a37613bac565b5b0492506020810190505b662386f26fc100008310612a7157662386f26fc100008381612a6757612a66613bac565b5b0492506010810190505b6305f5e1008310612a9a576305f5e1008381612a9057612a8f613bac565b5b0492506008810190505b6127108310612abf576127108381612ab557612ab4613bac565b5b0492506004810190505b60648310612ae25760648381612ad857612ad7613bac565b5b0492506002810190505b600a8310612af1576001810190505b80915050919050565b6040518060a0016040528060008152602001600073ffffffffffffffffffffffffffffffffffffffff168152602001600073ffffffffffffffffffffffffffffffffffffffff168152602001600081526020016000151581525090565b828054612b6390613ad1565b90600052602060002090601f016020900481019282612b855760008555612bcc565b82601f10612b9e57805160ff1916838001178555612bcc565b82800160010185558215612bcc579182015b82811115612bcb578251825591602001919060010190612bb0565b5b509050612bd99190612bdd565b5090565b5b80821115612bf6576000816000905550600101612bde565b5090565b6000612c0d612c08846138a1565b61387c565b905082815260208101848484011115612c2957612c28613c6d565b5b612c34848285613a8f565b509392505050565b6000612c4f612c4a846138d2565b61387c565b905082815260208101848484011115612c6b57612c6a613c6d565b5b612c76848285613a8f565b509392505050565b600081359050612c8d81614163565b92915050565b600081359050612ca28161417a565b92915050565b600081359050612cb781614191565b92915050565b600081519050612ccc81614191565b92915050565b600082601f830112612ce757612ce6613c68565b5b8135612cf7848260208601612bfa565b91505092915050565b600082601f830112612d1557612d14613c68565b5b8135612d25848260208601612c3c565b91505092915050565b600081359050612d3d816141a8565b92915050565b600060208284031215612d5957612d58613c77565b5b6000612d6784828501612c7e565b91505092915050565b60008060408385031215612d8757612d86613c77565b5b6000612d9585828601612c7e565b9250506020612da685828601612c7e565b9150509250929050565b600080600060608486031215612dc957612dc8613c77565b5b6000612dd786828701612c7e565b9350506020612de886828701612c7e565b9250506040612df986828701612d2e565b9150509250925092565b60008060008060808587031215612e1d57612e1c613c77565b5b6000612e2b87828801612c7e565b9450506020612e3c87828801612c7e565b9350506040612e4d87828801612d2e565b925050606085013567ffffffffffffffff811115612e6e57612e6d613c72565b5b612e7a87828801612cd2565b91505092959194509250565b60008060408385031215612e9d57612e9c613c77565b5b6000612eab85828601612c7e565b9250506020612ebc85828601612c93565b9150509250929050565b60008060408385031215612edd57612edc613c77565b5b6000612eeb85828601612c7e565b9250506020612efc85828601612d2e565b9150509250929050565b600060208284031215612f1c57612f1b613c77565b5b6000612f2a84828501612ca8565b91505092915050565b600060208284031215612f4957612f48613c77565b5b6000612f5784828501612cbd565b91505092915050565b60008060408385031215612f7757612f76613c77565b5b600083013567ffffffffffffffff811115612f9557612f94613c72565b5b612fa185828601612d00565b9250506020612fb285828601612d2e565b9150509250929050565b600060208284031215612fd257612fd1613c77565b5b6000612fe084828501612d2e565b91505092915050565b6000806040838503121561300057612fff613c77565b5b600061300e85828601612d2e565b925050602061301f85828601612d2e565b9150509250929050565b6000613035838361343a565b60a08301905092915050565b61304a81613a1b565b82525050565b61305981613a09565b82525050565b600061306a82613913565b6130748185613941565b935061307f83613903565b8060005b838110156130b05781516130978882613029565b97506130a283613934565b925050600181019050613083565b5085935050505092915050565b6130c681613a2d565b82525050565b6130d581613a2d565b82525050565b60006130e68261391e565b6130f08185613952565b9350613100818560208601613a9e565b61310981613c7c565b840191505092915050565b600061311f82613929565b6131298185613963565b9350613139818560208601613a9e565b61314281613c7c565b840191505092915050565b600061315882613929565b6131628185613974565b9350613172818560208601613a9e565b80840191505092915050565b600061318b602d83613963565b915061319682613c8d565b604082019050919050565b60006131ae601b83613963565b91506131b982613cdc565b602082019050919050565b60006131d1603283613963565b91506131dc82613d05565b604082019050919050565b60006131f4601b83613963565b91506131ff82613d54565b602082019050919050565b6000613217602583613963565b915061322282613d7d565b604082019050919050565b600061323a601c83613963565b915061324582613dcc565b602082019050919050565b600061325d602483613963565b915061326882613df5565b604082019050919050565b6000613280601983613963565b915061328b82613e44565b602082019050919050565b60006132a3602983613963565b91506132ae82613e6d565b604082019050919050565b60006132c6602e83613963565b91506132d182613ebc565b604082019050919050565b60006132e9604083613963565b91506132f482613f0b565b604082019050919050565b600061330c602083613963565b915061331782613f5a565b602082019050919050565b600061332f601883613963565b915061333a82613f83565b602082019050919050565b6000613352602183613963565b915061335d82613fac565b604082019050919050565b6000613375602483613963565b915061338082613ffb565b604082019050919050565b6000613398603d83613963565b91506133a38261404a565b604082019050919050565b60006133bb601c83613963565b91506133c682614099565b602082019050919050565b60006133de602883613963565b91506133e9826140c2565b604082019050919050565b6000613401601183613963565b915061340c82614111565b602082019050919050565b6000613424601783613963565b915061342f8261413a565b602082019050919050565b60a08201600082015161345060008501826134a2565b5060208201516134636020850182613041565b5060408201516134766040850182613041565b50606082015161348960608501826134a2565b50608082015161349c60808501826130bd565b50505050565b6134ab81613a85565b82525050565b6134ba81613a85565b82525050565b60006134cc828561314d565b91506134d8828461314d565b91508190509392505050565b60006020820190506134f96000830184613050565b92915050565b60006080820190506135146000830187613050565b6135216020830186613050565b61352e60408301856134b1565b818103606083015261354081846130db565b905095945050505050565b60006060820190506135606000830186613050565b61356d60208301856134b1565b61357a60408301846130cc565b949350505050565b6000602082019050818103600083015261359c818461305f565b905092915050565b60006020820190506135b960008301846130cc565b92915050565b600060208201905081810360008301526135d98184613114565b905092915050565b600060208201905081810360008301526135fa8161317e565b9050919050565b6000602082019050818103600083015261361a816131a1565b9050919050565b6000602082019050818103600083015261363a816131c4565b9050919050565b6000602082019050818103600083015261365a816131e7565b9050919050565b6000602082019050818103600083015261367a8161320a565b9050919050565b6000602082019050818103600083015261369a8161322d565b9050919050565b600060208201905081810360008301526136ba81613250565b9050919050565b600060208201905081810360008301526136da81613273565b9050919050565b600060208201905081810360008301526136fa81613296565b9050919050565b6000602082019050818103600083015261371a816132b9565b9050919050565b6000602082019050818103600083015261373a816132dc565b9050919050565b6000602082019050818103600083015261375a816132ff565b9050919050565b6000602082019050818103600083015261377a81613322565b9050919050565b6000602082019050818103600083015261379a81613345565b9050919050565b600060208201905081810360008301526137ba81613368565b9050919050565b600060208201905081810360008301526137da8161338b565b9050919050565b600060208201905081810360008301526137fa816133ae565b9050919050565b6000602082019050818103600083015261381a816133d1565b9050919050565b6000602082019050818103600083015261383a816133f4565b9050919050565b6000602082019050818103600083015261385a81613417565b9050919050565b600060208201905061387660008301846134b1565b92915050565b6000613886613897565b90506138928282613b03565b919050565b6000604051905090565b600067ffffffffffffffff8211156138bc576138bb613c39565b5b6138c582613c7c565b9050602081019050919050565b600067ffffffffffffffff8211156138ed576138ec613c39565b5b6138f682613c7c565b9050602081019050919050565b6000819050602082019050919050565b600081519050919050565b600081519050919050565b600081519050919050565b6000602082019050919050565b600082825260208201905092915050565b600082825260208201905092915050565b600082825260208201905092915050565b600081905092915050565b600061398a82613a85565b915061399583613a85565b9250827fffffffffffffffffffffffffffffffffffffffffffffffffffffffffffffffff038211156139ca576139c9613b7d565b5b828201905092915050565b60006139e082613a85565b91506139eb83613a85565b9250828210156139fe576139fd613b7d565b5b828203905092915050565b6000613a1482613a65565b9050919050565b6000613a2682613a65565b9050919050565b60008115159050919050565b60007fffffffff0000000000000000000000000000000000000000000000000000000082169050919050565b600073ffffffffffffffffffffffffffffffffffffffff82169050919050565b6000819050919050565b82818337600083830152505050565b60005b83811015613abc578082015181840152602081019050613aa1565b83811115613acb576000848401525b50505050565b60006002820490506001821680613ae957607f821691505b60208210811415613afd57613afc613bdb565b5b50919050565b613b0c82613c7c565b810181811067ffffffffffffffff82111715613b2b57613b2a613c39565b5b80604052505050565b6000613b3f82613a85565b91507fffffffffffffffffffffffffffffffffffffffffffffffffffffffffffffffff821415613b7257613b71613b7d565b5b600182019050919050565b7f4e487b7100000000000000000000000000000000000000000000000000000000600052601160045260246000fd5b7f4e487b7100000000000000000000000000000000000000000000000000000000600052601260045260246000fd5b7f4e487b7100000000000000000000000000000000000000000000000000000000600052602260045260246000fd5b7f4e487b7100000000000000000000000000000000000000000000000000000000600052603260045260246000fd5b7f4e487b7100000000000000000000000000000000000000000000000000000000600052604160045260246000fd5b600080fd5b600080fd5b600080fd5b600080fd5b6000601f19601f8301169050919050565b7f4552433732313a2063616c6c6572206973206e6f7420746f6b656e206f776e6560008201527f72206f7220617070726f76656400000000000000000000000000000000000000602082015250565b7f436f756e7465723a2064656372656d656e74206f766572666c6f770000000000600082015250565b7f4552433732313a207472616e7366657220746f206e6f6e20455243373231526560008201527f63656976657220696d706c656d656e7465720000000000000000000000000000602082015250565b7f4f6e6c79206f776e65722063616e20726573616c6520746f6b656e0000000000600082015250565b7f4552433732313a207472616e736665722066726f6d20696e636f72726563742060008201527f6f776e6572000000000000000000000000000000000000000000000000000000602082015250565b7f4552433732313a20746f6b656e20616c7265616479206d696e74656400000000600082015250565b7f4552433732313a207472616e7366657220746f20746865207a65726f2061646460008201527f7265737300000000000000000000000000000000000000000000000000000000602082015250565b7f4552433732313a20617070726f766520746f2063616c6c657200000000000000600082015250565b7f4552433732313a2061646472657373207a65726f206973206e6f74206120766160008201527f6c6964206f776e65720000000000000000000000000000000000000000000000602082015250565b7f45524337323155524953746f726167653a2055524920736574206f66206e6f6e60008201527f6578697374656e7420746f6b656e000000000000000000000000000000000000602082015250565b7f506c65617365207375626d6974207468652061736b696e67207072696365206960008201527f6e206f7264657220746f20636f6d706c65746520746865207075726368617365602082015250565b7f4552433732313a206d696e7420746f20746865207a65726f2061646472657373600082015250565b7f4552433732313a20696e76616c696420746f6b656e2049440000000000000000600082015250565b7f4552433732313a20617070726f76616c20746f2063757272656e74206f776e6560008201527f7200000000000000000000000000000000000000000000000000000000000000602082015250565b7f5072696365206d75737420626520657175616c20746f206c697374696e67207060008201527f7269636500000000000000000000000000000000000000000000000000000000602082015250565b7f4552433732313a20617070726f76652063616c6c6572206973206e6f7420746f60008201527f6b656e206f776e6572206f7220617070726f76656420666f7220616c6c000000602082015250565b7f5072696365206d757374206265206174206c6561737420312077656900000000600082015250565b7f5072696365206d7573742062652067726561746572207468616e206c6973746960008201527f6e67207072696365000000000000000000000000000000000000000000000000602082015250565b7f4974656d20616c726561647920736f6c64000000000000000000000000000000600082015250565b7f546f6b656e20696420646f6573206e6f74206578697374000000000000000000600082015250565b61416c81613a09565b811461417757600080fd5b50565b61418381613a2d565b811461418e57600080fd5b50565b61419a81613a39565b81146141a557600080fd5b50565b6141b181613a85565b81146141bc57600080fd5b5056fea2646970667358221220139bdbc3187438d1c2a625d66db85303cb8d0d78ab4727be3c8927a5bb08da7a64736f6c63430008070033",
  "linkReferences": {},
  "deployedLinkReferences": {}
}